:10000000F8FF022011040000AD3B0000AD3B0000F2
:10001000AD3B0000AD3B0000AD3B0000AD3B000040
:10002000AD3B0000AD3B0000AD3B0000AD3B000030
:10003000AD3B0000AD3B0000AD3B0000AD3B000020
:10004000AD3B0000AD3B0000AD3B0000AD3B000010
:10005000DD400000AD3B0000AD3B0000AD3B0000CB
:10006000AD3B0000AD3B0000AD3B0000AD3B0000F0
:10007000AD3B0000AD3B0000AD3B0000AD3B0000E0
:10008000AD3B0000AD3B0000AD3B0000AD3B0000D0
:10009000AD3B0000AD3B0000AD3B0000AD3B0000C0
:1000A000AD3B0000AD3B0000AD3B0000AD3B0000B0
:1000B000AD3B0000AD3B0000AD3B0000AB3A0000A3
:1000C000AD3B0000CF3A0000AD3B0000F33A00002A
:1000D000AD3B0000173B0000AD3B0000AD3B000016
:1000E000AD3B0000AD3B0000ED3F0000FD3F0000D8
:1000F0000D400000AD3B0000AD3B0000AD3B0000FB
:100100006D3D00007B3D0000893D0000973D0000F3
:10011000AD3B0000AD3B0000AD3B0000AD3B00003F
:10012000AD3B0000AD3B00008D3F0000C92C00003E
:10013000032D00003D2D00005B2D0000952D0000DB
:10014000AD3B0000AD3B00003B3B0000AD3B000081
:10015000AD3B0000AD3B0000AD3B0000AD3B0000FF
:10016000AD3B0000AD3B0000AD3B0000AD3B0000EF
:10017000AD3B0000AD3B0000AD3B0000AD3B0000DF
:10018000AD3B0000AD3B0000AD3B0000AD3B0000CF
:10019000AD3B0000AD3B0000AD3B0000BD3B0000AF
:1001A000AD3B0000AD3B0000AD3B0000AD3B0000AF
:1001B000AD3B0000AD3B0000AD3B0000AD3B00009F
:1001C000AD3B0000AD3B0000AD3B0000AD3B00008F
:100410004FF000004FF000014FF000024FF00003DA
:100420004FF000044FF000054FF000064FF00007BA
:100430004FF000084FF000094FF0000A4FF0000B9A
:100440004FF0000C62B603F0BBFCFEE71EF0040F99
:100450000CBFEFF30880EFF3098003F0BABB01B4DF
:1004600004B408B410B4074B074C0022206840F4D1
:100470000000206018681A6010BC08BC04BC01BCF5
:1004800070470000007003403C8004402DE9F043B9
:100490009FB000BF66A6269CDFF8E48A02918DF823
:1004A0003B4000210B914FF0FF37044691461D461B
:1004B0000AE019F8011B0298A0470028029000F0FA
:1004C000A4800B98401C0B9099F8000050B125288F
:1004D000EFD1002000210590069107900891099026
:1004E0000A9103E00B98A7E041F0010119F8010F10
:1004F0002028F9D023280CD02B2804D02D2805D073
:10050000302809D083E041F00201EFE741F0040117
:10051000ECE741F00801E9E741F01001E6E70020CF
:100520000D900AE00D98404505DA00EB800302EBE0
:100530004302303A0D9209F1010999F80020A2F125
:1005400030000A28EED399F800002E2818BF0C9727
:1005500026D119F8010F2A2808D12868286009F146
:10056000010950F8042B28600C9219E02D280CBFCB
:1005700019F8010B002000220C920BE040B90C9AF4
:10058000424505DA02EB820203EB4203303B0C9357
:1005900009F1010999F80030A3F130020A2AEDD3DC
:1005A000ADF83810304699F8001000F085FE08B11B
:1005B00019F8010B8DF83A009DF83A00682804BF3D
:1005C00099F80010682903D162208DF83A0008E0FC
:1005D0006C2804BF99F800006C2804D171218DF8B3
:1005E0003A1009F1010910A804902A4619F8013BB4
:1005F0006946204600F060F838B910AA69462046DE
:1006000000F08CF900287FF55FAF384614E02A2807
:1006100085D12A682A6052F8040B2A6000280D90C0
:1006200003D540420D9041F0040109F101098AE728
:10063000686A6C747A4C00001FB0BDE8F0836228D1
:1006400020D0682811D06A2803D06C2827D07128C0
:1006500025D10868C01D20F007000860D0E90023FC
:1006600008300860194610467047002A0A680A6078
:10067000106803D0121D0A6000B217E0121D0A6054
:1006800080B217E0002A0A680A60106803D0121DC1
:100690000A6040B20AE0121D0A60C0B20AE0002AF5
:1006A0000A680A60106803D0121D0A60C1177047FB
:1006B000121D0A600021704770B51C460D46B4F14A
:1006C00025002E69114600F017811C386AD0001FE2
:1006D000022867D9133843D0093863D0801E16D05A
:1006E000401E1ED0401E02285CD9001F19D0401F9A
:1006F00000F08380401E33D0401E00F0CD80C01E2D
:1007000000F0D880801E2BD0C01E29D0FAE0686986
:10071000421C6A610A680A6052F8043B0A6033545A
:10072000FAE095F83A000122FFF789FFC5E90001D8
:100730000023994204DA6869411C69612D210DE0AA
:10074000288F810704D56869411C69612B2105E068
:10075000C00722D56869411C6961202131541CE021
:1007600095F83A000022FFF76AFFC5E9000195F805
:100770003800010711D5D5E900230020834208BFC6
:1007800082420AD044F02000782806D168693021DE
:100790003154401C411C696134542146686930441D
:1007A000E86083E00868C01D20F007000860D0E919
:1007B000002308300860C5E90023D5E90001C80F0F
:1007C00004D06869411C69612D210DE0288F8107E3
:1007D00004D56869411C69612B2105E0C00704D577
:1007E0006869411C69612021315468693044E860BE
:1007F0002146284600F0C4F98EE005F13A0250780F
:1008000020B14FF0FF340FF648205EE010786228E8
:1008100008D0682824D06A2812D06C282ED07128DD
:100820000ED02BE00A680A6052F8040B0A6020B967
:100830004FF0FF340FF6302047E0E96A01706BE0BB
:100840000A680A6052F8040B0A6020B94FF0FF34BE
:100850000FF6142039E0EA6AD317C0E900235BE001
:100860000A680A6052F8040B0A6020B94FF0FF349E
:100870000FF6F41029E0E96A01804DE00A680A6089
:1008800052F8040B0A6020B94FF0FF340FF6D8106D
:100890001BE0E96A01603FE00A680A6052F8040B55
:1008A0000A600021C5E90001EE607821284600F0C9
:1008B000BBF831E00868086050F8044B0860EC6051
:1008C0003CB94FF0FF340FF6B81000F001FD201ACC
:1008D00070BD2E6B002E04D5204600F019FD044695
:1008E00008E032460021204600F02EFD002814BF0B
:1008F000041B3446AC610FE06869411C6961252125
:10090000315409E06969481C68612522725421004C
:1009100002D0411C69613454002070BD2DE9FC41B6
:100920000F460646796B7869BC6A091A386A091A53
:10093000B869091A786A091AF869091A97F8380023
:100940000C1B410790460FD42021002C8DF800107D
:100950000ADD254601236A463946304600F060FC30
:1009600000285DD16D1EF5D17B694246394630467F
:1009700000F056FC002853D130208DF800003D6A6D
:10098000002D09DD01236A463946304600F048FC57
:10099000002845D16D1EF5D1BB69FA68394630464D
:1009A00000F03EFC00283BD130208DF800007D6A2D
:1009B000002D08DD01236A463946304600F030FC40
:1009C00070BB6D1EF6D1F868B969FB6942183946EB
:1009D000304600F025FC18BB30208DF80000BD6AC1
:1009E000002D08DD01236A463946304600F018FC28
:1009F000B0B96D1EF6D197F8380041070DD520210A
:100A0000002C8DF8001008DD01236A463946304677
:100A100000F006FC20B9641EF6D10020BDE8F68186
:100A20004FF0FF30BDE8F6812DE9FC4707468A46C6
:100A30003E69BAF16F0F08BF082405D04AF02001C3
:100A4000782914BF0A2410243C25D7E90023BAF1E1
:100A5000640F18BFBAF1690F9046994606D100217C
:100A60008B4203DAD8F1000869EB4909002081457F
:100A700008BF80451FD1386BE8B9082C4CD197F8D6
:100A80003800010748D530203B2586F83B0043E07D
:100A900000280ED597F8380000F01400102808D16F
:100AA0007A6B7869121A386A121A511A0029C8BF6B
:100AB0003962BDE8F3878DF800A0404649462246DA
:100AC000E31700F06DFC3032D0B26D1E3A2801956C
:100AD00004DB9DF80000A0F151018A1872554046D0
:100AE00049462246E31700F05BFC80468946002019
:100AF000814508BF804503D0F86871198842DCD36E
:100B0000082C09D197F83800010705D5715D302907
:100B100002D06D1E30207055C5F13C01B9617019CD
:100B2000F860386B8142B3DA411A39624FF6EF70E0
:100B3000398F01403987BDE8F3872DE9D043064658
:100B40000F4614464FF00008DFF8389412E0E00733
:100B500007D542464B463046394600F039FD064639
:100B60000F464046494642464B4600F031FD641070
:100B700080468946002CEAD130463946BDE8D0830C
:100B80002DE9F34F054641F020048DB0D5E90089E9
:100B9000612C02AE09D0286B002848BF062003D480
:100BA00008BF672C01D101202863D5E90023580034
:100BB0004015401C0ED119030CD00320A8619DF8EC
:100BC000380061381A2802D20FF2D06111E00FF21A
:100BD000D0610EE058004015401C0FD119030DD113
:100BE0000320A8619DF8380061381A2814D30FF249
:100BF000B861E868032200F0BDFDD3E1194621F099
:100C00000043B3F5801F10460DD20027BB4208BF3A
:100C1000BA42019703D111E00FF28861E9E701AA16
:100C200000F0FCFD0AE0DFF8607307EB1352DFF819
:100C30005C3301921940DFF858331943C5E90001CC
:100C4000612C0ED1E86830210170811CE9609DF8AB
:100C5000381061290CBF7821582141706869801CC7
:100C60006861D5E900AB2BF0004300202AF00002B8
:100C7000834204BF8242002300F05A81612C40F07D
:100C8000A980286B00284CBF2120401C00904046C2
:100C9000009F7F1C49460022002300F0F7FDD94643
:100CA00001988DF8082038BF89F00049001F019095
:100CB000002FD0460DF1090040F3498140F2FF7149
:100CC000DFF8D0B20C910646404649460022002388
:100CD00000F0F4FD80F03A814800400D00F11C0264
:100CE00010D0002A0EDD0C98824205DB09F000408E
:100CF00040EA0B01002013E0A448084040EA0251FA
:100D000040460DE029F00043002028F00002834215
:100D100008BF82420FBF40461C22404600F0E6FD5D
:100D20008046894600F080FEFF1F002F044609DD43
:100D300000F098FE02460B464046494600F0A4FEED
:100D400080468946F01D072104E004F00F0200F8F8
:100D5000012D2411002C01DD491EF6D5491E5CBF72
:100D6000002200F8012DF9D5ECE00020194602AA76
:100D70000A4400E05B1E12F80149491E8442F9D082
:100D80000F2804D10DF10900425C521C4254002985
:100D900004D50198001D02AE5B1C0190591E12D4AF
:100DA0009DF838007218147804F130085FFA88F45E
:100DB000392CC4BFA0F13A04A044491E02F80189AD
:100DC000F1D58DF83800286B002840F1B080591E0D
:100DD0002963ACE0404649460022002300F056FD5E
:100DE000019938BF89F0004947F2975041436A4A58
:100DF00091FBF2F20192D2F1070204DD404649462E
:100E0000FFF79BFE0AE0524200206449FFF795FE7F
:100E100002460B464046494600F0A8FE8046662C36
:100E2000286BDFF87CB106BF019F0A3706273F1801
:100E3000142FC8BF142730208DF8080089460DF103
:100E4000090000E03046002F34DD064640464946A2
:100E500000F0B0FF01460A4606F1080304200A2606
:100E6000B2FBF6F606EB860EA2EB4E02303203F82A
:100E7000012C0A22B6FBF2F202EB820EA6EB4E0622
:100E80003036401E03F8026DE9D1083F002F03F110
:100E90000806D7DD084600F0A1FF02460B46404693
:100EA000494600F0F1FD00225B4600F091FB8046D0
:100EB0008946CBE70DF10901401A0DF1090604E05E
:100EC0000199491E401E0191761C31783029F7D0D6
:100ED000662C02D10199491C03E0652C0CBF01214D
:100EE00000212B6BCB189842B8BF431E002B1ED499
:100EF000834204DAF05C3528A8BF392000DA3020BC
:100F00001946721E02EB010800E05B1E18F80199F9
:100F1000491E8145F9D0392802D1705C401C7054BB
:100F2000002904D50198401C16465B1C01900198CD
:100F300000B200901BB29DF838103246284600F0EF
:100F400035F82FE0C61D002F3FF7BEAE30460DF13D
:100F50000901401A009903468842C8BF0B46002B7E
:100F60000DF109063FF52FAF8342BFF6FEAE0DF13E
:100F70000900C05C07287FF7F8AE0F20F6E60000F6
:100F8000CBCCCC0C0000244002FCFFFFFFFF0F8005
:100F90000000E03F0000F07FA08601000000F03F6D
:100FA00084D797410FB0BDE8F08F00002DE9FC43D6
:100FB000054683B01F46D5F83080002F164602DC68
:100FC0005FF00107B9A68946BDF9304049F020001D
:100FD000662808BF641C17D0672840F0888014F189
:100FE000040FC0F28A80444580F2878095F838006B
:100FF000641C010702D44745B8BFB84620B2B8EB1D
:10100000000848BF4FF000080FFA84F9E868A969A2
:10101000B9F1000F27DC4A1C30234354B8F1000F0C
:1010200003DC95F83800010703D5E8682E218154C8
:10103000521C18EB090FB8BFC8F1000424B260427B
:101040006862A044B845AA61B8BF4746E868AB6982
:101050003FB2EF613A463146184400F08BFBA8EBF3
:101060000700A862C5E022B29742084419DA3A465E
:10107000314600F07FFBA8693818A9EB0707B8F1E3
:10108000000FA8616F6203DC95F838100A0705D5D8
:10109000E9682E220A54E869401CE861C5F82880F6
:1010A000A7E0314600F066FBA8693F1BB8F1000FCE
:1010B000484403DC95F838100A0703D5E9682E2266
:1010C0000A54401CA86138B28045E868AB69B8BFD3
:1010D00047463AB206EB0901184400F04BFBA869F9
:1010E0003FB23818A8EB0707A8616F6281E0B9F139
:1010F000610F16D14FF0700918E0474504DA95F8F2
:1011000038100A0758BFB846B8F1010848BF4FF079
:101110000008B9F1670F14BF4FF045094FF065099A
:1011200004E0B9F1410F08BF4FF05009A969EB681D
:10113000481CA861B8F1000F16F8012B5A5403DCC3
:1011400095F838100A0719D5EA68431CAB612E21BF
:101150001154B8F1000F11DD7F1E38B28045E868E8
:10116000B8BF47463AB23146184400F003FBA869BD
:101170003FB23818A861A8EB07006862E868A9695F
:101180000844002C80F8009003D42B214170811C6E
:1011900003E02D2141706442811C00206A460AE070
:1011A00023460A2493FBF4F404EB8406A3EB4603E2
:1011B00002F8013B401C24B2002CF1DC012806DCC3
:1011C00049F02002652A04BF302201F8012B48B9FA
:1011D000302001F8010B07E0401E1DF800203032DE
:1011E00001F8012B0028F7DCE868AA691044091A05
:1011F000E96195F8380000F0140010280DD16969F4
:10120000A8694118686A4118E8694118A86A411834
:10121000686B8142BCBF411A296205B0BDE8F0830A
:10122000F8B505460E4617461C46002074B117F85F
:10123000011BB068A847B06030B1F06A401CF06292
:101240000020641EF3D1F2BD4FF0FF30F2BD00006C
:101250007072696E74665F733A20256E20646973DC
:10126000616C6C6F776564007072696E74663A20A9
:1012700062616420256E20617267756D656E740011
:101280007072696E74665F733A20626164202573C0
:1012900020617267756D656E740000006E616E008E
:1012A0004E414E00696E6600494E460030000268AD
:1012B000531C0360117070470278C9B28A421AB198
:1012C0001CBF10F8012FF9E718BF0020704700007D
:1012D00080B500B906A005490B681BB12222002188
:1012E000984701E000F087FD222002BD3404FF1F73
:1012F000636F6E73747261696E742068616E646C82
:1013000065723A20626164206D6573736167650080
:1013100000F10103810704D010F8011B89B1810796
:10132000FAD10268B2F10131914311F0803F04BF5C
:1013300050F8042FF6E710F8011B11B110F8011B4B
:10134000FBE7C01A70470000C9B2830706D0521EDF
:1013500022D310F8013B9942F7D11FE0083A13D38A
:1013600002F1040241EA012141EA014150F8043B43
:10137000121F21BF4B40A3F1013C2CEA030C1CF0CF
:10138000803FF3D0C9B2001F083210F8013B521E53
:1013900028BF91EA030FF8D818BF0120401E7047FC
:1013A000B3BBD9B1B2F5803F7DD2022A1ED98C469B
:1013B000B1FBF2F102FB11C31B0443EA1043B3FB80
:1013C000F2FC02FB1C3380B240EA0343B3FBF2F0B1
:1013D00002FB103240EA0C4000237047022A05D974
:1013E0008446B0FBF2F002FB10C270474AB105D14F
:1013F00000F0010249085FEA300070470022002334
:10140000704700F0FBBC0B00020000210020704779
:10141000904271EB030CF6D3B3F5803F2FD2F0B5B9
:10142000B3FA83F7B1FA81F4A7F10F0E3D1B5340D5
:10143000CEF1200602FA0EF2F3415340B5F10F0748
:1014400046D80F3C2C444140C4F12006A040F14155
:101450004140B1FBF3F603FB1611A2FB0645001B4E
:10146000A94102D2761E8018594180EA010221FA70
:101470000EF362FA0EF200215A403046F0BD30B44D
:10148000B1FBF3FC03FB1C11A2FB0C45001BA941A3
:1014900003D2ACF1010C8018594130BC02460B4616
:1014A000604600217047B2F1807F65D3F0B5B2FA93
:1014B00082F7B1FA81F4C7F10F063D1B22FA06F359
:1014C00007F1110EF24120355A40B5F10F07B8D996
:1014D0004140C4F12006A040F1414140B1FBF3FC82
:1014E00003FB1C11A2FB0C45001BA94103D2BCF15C
:1014F000010C801859410F2F12D30F3FC90341EA45
:101500005041B1FBF3F603FB1611A2FB0645D4EBE9
:10151000C030A94102D2761E8018594146EACC3C1F
:1015200007B34140C7F12006B840F1414140B1FB4B
:10153000F3F603FB1611A2FB0645001BA94102D2DC
:10154000761E8018594180EA010221FA0EF3C7F194
:10155000200462FA0EF20CFA07F05A402CFA04F159
:101560003043F0BD80EA010221FA0EF3002162FA55
:101570000EF260465A40F0BD8C46B1FBF2F102FB20
:1015800011C31B0243EA1063B3FBF2FC02FB1C33E2
:101590001B024CEA002043EA1063B3FBF2FC02FB9F
:1015A0001C331B024CEA002043EA1063B3FBF2FC3D
:1015B00002FB1C331B024CEA002043EA1063B3FB1E
:1015C000F2FC02FB1C324CEA0020002370470000B2
:1015D000B0B581EA030C0CF0004C40F2FF7515EA3F
:1015E00011541DBF15EA1357AC42AF4239E0E4195C
:1015F00023EA455343F48013C90241F0004141EA14
:10160000505EC7021100A7FB020200284FF0000045
:10161000EEFB01204FF00001E3FB072118BF42F071
:101620000102401800214941E3FB0E01A4F580644A
:101630000F0302D252004041494154F101046CDDD4
:10164000470872F1004250F1000051EB0451A1F53E
:1016500080115CBF41EA0C01B0BD4CEA055100208D
:10166000B0BD05EA1357AC4214BFAF4241E050EAA7
:10167000410E1CBF52EA430E02E061460020B0BD9D
:1016800024423C441BD15FEA070EF6D0090302BF97
:1016900001460020AEF1140EB1FA81F7AEEB07045B
:1016A00001FA07FE0C37C7F1200100FA07F7C8401E
:1016B0004EEA000E23EA455343F48013A2E733F0C9
:1016C0000043B3FA83F704BFB2FA82FE77440B3FBC
:1016D000E41BB7F1200E2FBF02FA0EF3BB40C7F197
:1016E000200E22FA0EFE38BF43EA0E03BA40641CF5
:1016F00082E750EA410E14BF52EA430E6FF0000138
:101700004FF4001717EB430F8ABF194617EB410F31
:10171000B5E74CEA05510020B0BDD4F10104B4F1A5
:1017200020070FDAC4F12007520828BF42F0010257
:1017300010FA07F501FA07F7E1BF2A43E040384302
:10174000E1400FE0352C98DCC7F1200452EA40025A
:1017500020FA07F218BF42F0010231FA07F0A14067
:101760000A43002172F1004250F1000051EB0C01DC
:10177000B0BD000062B38B0708D0521E11F8013BC8
:1017800000F8013B00F024808B07F6D1830740F07E
:10179000208000BF103A07D330B4B1E83810103AB7
:1017A000A0E83810F9D230BC530724BFB1E80810C4
:1017B000A0E8081044BF51F8043B40F8043BD207AE
:1017C00024BF31F8022B20F8022B44BF0B780370A2
:1017D0007047121F17D35B0009D151F8043B20F862
:1017E000023B1B0C121F20F8023BF6D20BE051F813
:1017F000043B00F8013B1B0A20F8023B1B0C121FA4
:1018000000F8013BF3D238BF121D521E24BF11F85D
:10181000013B00F8013BF8D87047000010B51446B2
:1018200000F002F8226010BDC1F30A5343B14A0030
:1018300012F5001F28D2A3F2FE32A1EB025170472D
:1018400050EA410C20D001F0004C31EA0C01B1FA11
:1018500081F204BFB0FA80F3D2180B3AB2F1200340
:101860002CBF00FA03F1914041EA0C013EBFC2F1E6
:10187000200C20FA0CF319439040524240F2FD3301
:10188000D21A01EB03517047002270474FF4001C3D
:101890001CEB410F94BF1CEB430F09E041EA030C22
:1018A00050EA4C0C52EA0C0C03D2994208BF904209
:1018B000704714BF8B428242704700004FF4001CF7
:1018C0001CEB410F94BF1CEB430F09E041EA030CF2
:1018D00050EA4C0C52EA0C0C03D28B4208BF8242F5
:1018E000704714BF9942904270470000124254D48E
:1018F00040F2FF7C1CEA11530FD0634531D09B1896
:1019000063453CBF01EB0251704701F0004141EAE1
:101910000C510020AFF30080704750EA410320D003
:1019200001F0004C91EA0C011CD0B1FA81F30B3BA1
:101930009A420DD9D21A994051EA0C01C3F1200CF8
:1019400020FA0CFC61449840531C40F2FF7CD7E71E
:10195000914041EA0C01C2F1200C20FA0CF319432A
:1019600090407047B0FA80F31533202BE0D3202A43
:10197000EED3203A203B9A4209D9D21A00FA03F159
:1019800041EA0C010020531C40F2FF7CB8E700FA4A
:1019900002F141EA0C0100207047524240F2FF7C04
:1019A0001CEA11530DD06345DBD0B2EB030C3CBFF6
:1019B000A1EB025170470CF1010221EA035141F4FD
:1019C000801150EA410CCCD001F0004C352A27DCC4
:1019D00030B481EA0C01B2F1200309DAC2F120032C
:1019E000044601FA03F5D0402843D1409C400CE066
:1019F000C3F12002450020FA03F418BF44F00104AB
:101A000021FA03F091400C43002174F1004550F19C
:101A1000000051EB0C01244230BC7FF47BAF7047D7
:101A20006146002076E70000C1F30A5340F2FE321F
:101A30009B1A14DDD3F120034FEAE17208DDC902DD
:101A400041EA505141F00040D84080185040704762
:101A500003F2E13010B1D24382F000407047002021
:101A600070470000C11768B14840401AB0FA80F2D0
:101A70009040D21CC907C2F5846241EA025202EBCF
:101A8000D02140057047000070B44FF0004591EA46
:101A9000030F40F1B5816B40841A71EB030603D24A
:101AA000001BB141121973414FF4001C1CEB410F94
:101AB00034BF7CEB430442E00C0DA4EB1356352EEF
:101AC0004FDC45EAC323DB0A45EAC121C912B6F15E
:101AD00020050DDD63FA05F6EB4086EA03051242A8
:101AE00018BF45F00105C01851F100010CD213E0F8
:101AF00062FA06F5F2405540F3415A40B340F340D4
:101B00005A408018594107D349085FEA30005FEA1C
:101B1000350528BF45F0010501F58011420875F132
:101B2000004250F1000041EB04514E0016F5001F39
:101B300070BC38BF70470020090D090570471CEBC9
:101B4000410F10D252EA43060BD0BCEB410F05D82F
:101B50000C0DAB43661E342EB6DD02E0AB4380189D
:101B6000594170BC704770BC70470000F0B540F23E
:101B7000FF7581EA030C0CF0004C15EA11541DBFEF
:101B800015EA1357AC42AF42E5E0BC41C1F3130183
:101B9000C3F31303801A994143F4801304D2641EE3
:101BA0004000494180185941C90241EA5051B1FBF6
:101BB000F3F603FB1611A2FB0675D7EBC020A94173
:101BC00002D2761E80185941C90241EA5051B1FB38
:101BD000F3FE03FB1E11A2FB0E75D7EBC020A9413B
:101BE00003D2AEF1010E80185941890241EA9051A9
:101BF000760546EA8E2EB1FBF3F603FB1611A2FB27
:101C00000675D7EB8020A94102D2761E8018594173
:101C1000C90241EA50514EEA060EB1FBF3F603FB4E
:101C20001611A2FB0675D7EBC020A94102D2761E81
:101C300080185941C90241EA5051B1FBF3F703FB47
:101C40001711A2FB0735D3EBC020A94167F10007AC
:101C50000CBF004247F0010766F3D5274FEA1E315B
:101C6000B80814F5806412DDBD0775F1004250EB31
:101C70000E5051EB045111F5801F5CBF41EA0C017D
:101C8000F0BD4CF07F6141F0E0410020F0BDBD07A8
:101C90006D0840EA0E5041F48011D4F10104B4F112
:101CA00020060ADAC4F120060200E04001FA06F339
:101CB000E1401843B24015430EE0342C13DCC6F16A
:101CC000200445EA40056D0820FA06F2154321FA82
:101CD00006F0A1400D43002175F1004250F10000D3
:101CE00051EB0C01F0BD00205FEA0C01F0BDCFB953
:101CF00092185B41B3FA83F704BFB2FA82F6BF19B8
:101D00000B3FB7F120062FBF02FA06F3BB40C7F125
:101D1000200622FA06F638BF3343BA401CB1E41954
:101D2000641E33E77F4231F00041B1FA81F404BF11
:101D3000B0FA80F6A4190B3CB4F120062FBF00FACC
:101D400006F1A140C4F1200620FA06F638BF31435F
:101D5000A0403C1B1AE7AC421ABF05EA1357AF423A
:101D600012E050EA41061CBF52EA4306BFE750EAC0
:101D70004107304661461CBF41EA0551F0BD52EAB9
:101D8000430C08BFC143F0BD00204FF4001616EB12
:101D9000410F98BF16EB430F08BF16EB410F24BF4E
:101DA000C14305E016EB430F0CBF61464CEA0551F9
:101DB000F0BD0000400D491840EA81200CD2490DC9
:101DC000A1F58061491C40F0004005DBD1F11F0105
:101DD00054BFC840C017704700207047014648B143
:101DE000B0FA80F18840C91CC1F58461090501EB96
:101DF000D02140057047012000F0B6B870470000C0
:101E0000841A71EB030604D26E40001BB141121913
:101E100073414FF4001C1CEB410F34BF7CEB4306B5
:101E200082E00C0DA4EB1356362E7BDC012E45EA26
:101E3000C32341DC43EA525312BFD20292025B0831
:101E4000240545EAC12141EA5051D2EBC020994115
:101E500025D407D1B0FA80F610FA06F162D000203E
:101E6000203608E0B1FA81F6B140C6F1200220FA2E
:101E700002F21143B0404FEAF474B4EB465434F02C
:101E800001064FEA74040AD8D6F50016760D04F060
:101E90000044F04061FA06F25040F1404840C00A68
:101EA00040EA415021F0004128BF5FEA500550F15F
:101EB000000044EBD12135E0DB0A45EAC121C90A23
:101EC000B6F120050EDD42EA0242120CC5F12006F1
:101ED00003FA06F6EB4042EA06056D42984161F1CD
:101EE00000010DE062FA06F5F240554063FA06FC87
:101EF00082EA0C02F3405A406D42904161EB0301CB
:101F000011F4801F05D1641E620502D06D004041AE
:101F1000494121F48011430875F1004350F100005C
:101F200041EB045170BC70471CEB410F15D223F0FC
:101F3000004352EA43060BD04FEA4C0CBCEB410F76
:101F400004D80C0D661E342EB7DDEBE7801A9941DC
:101F500050EA410608BF0021E4E708BF1CEB430F2D
:101F600028BF6FF00001DDE780B500F007F8024AF6
:101F700011001820ABBEFBE72600020010B500F0F0
:101F800052F802000023DB4300241068984203D07B
:101F900011000220ABBE14605068984203D0111D9E
:101FA0000220ABBE546010BDF0B583B0040000F059
:101FB0003AF8A10047183D680026F643B54216D10D
:101FC00000F01AF83D68B5420FD100BF09A000909B
:101FD000002C01D1002000E0042001900320029099
:101FE00069460120ABBE05003D6000F014F82800F2
:101FF00003B0F0BD3A7474000C480121BFF35F8F49
:10200000D0E84F3FC0E8421F002AF9D1BFF35F8FED
:10201000002BF3D170470548BFF35F8F002101709B
:10202000BFF35F8F70470248704700003804FF1FFE
:102030002404FF1F0000000000000000000000005A
:1020400000000000000000F8000000000000003365
:102050003000000000100C06100C0600000000000C
:102060000000000040C07840C0784000043F0404F5
:102070003F040400007088FC08300000001820FFB6
:10208000211E0000F008F000E018000000211C03F1
:102090001E211E0000F00888700000001E2123246D
:1020A0001927211010160E0000000000000000008B
:1020B00000000000000000E018040200000000071B
:1020C0001820400000020418E00000000040201822
:1020D00007000000404080F0804040000202010FF5
:1020E00001020200000000F0000000000101011FD9
:1020F00001010100000000000000000080B070003D
:1021000000000000000000000000000000010101CC
:10211000010101010000000000000000003030005B
:102120000000000000000000806018040060180635
:102130000100000000E010080810E000000F10206F
:1021400020100F00001010F8000000000020203FB9
:102150002020000000700808088870000030282443
:1021600022213000003008888848300000182020E4
:1021700020110E000000C02010F800000007042409
:10218000243F240000F8088888080800001921204E
:1021900020110E0000E0108888180000000F1120A8
:1021A00020110E0000380808C83808000000003F61
:1021B000000000000070880808887000001C2221C0
:1021C00021221C0000E010080810E000000031226D
:1021D00022110F00000000C0C0000000000000300D
:1021E000300000000000008000000000000080605F
:1021F00000000000000080402010080000010204E0
:1022000008102000404040404040400004040404C6
:102210000404040000081020408000000020100882
:1022200004020100007048080808F00000000030B7
:1022300036010000C030C828E810E0000718272445
:1022400023140B000000C038E0000000203C2302F3
:102250000227382008F8888888700000203F202056
:1022600020110E00C0300808080838000718202088
:102270002010080008F808080810E000203F20207F
:1022800020100F0008F88888E8081000203F202060
:102290002320180008F88888E8081000203F200054
:1022A00003000000C030080808380000071820208C
:1022B000221E020008F808000008F808203F21014B
:1022C00001213F20000808F8080800000020203FF6
:1022D0002020000000000808F8080800C080808066
:1022E0007F00000008F888C028180800203F20015F
:1022F0002638200008F8080000000000203F2020B9
:102300002020300008F8F800F8F80800203F003FCF
:10231000003F200008F830C00008F808203F2000E7
:1023200007183F00E01008080810E0000F102020F8
:1023300020100F0008F808080808F000203F2101CD
:1023400001010000E01008080810E0000F18242424
:1023500038504F0008F8888888887000203F200097
:10236000030C30200070880808083800003820214D
:1023700021221C00180808F8080818000000203F57
:102380002000000008F808000008F808001F2020BE
:1023900020201F000878880000C83808000007388F
:1023A0000E010000F80800F80008F800033C0700E0
:1023B000073C0300081868808068180820302C0348
:1023C000032C30200838C800C83808000000203F1F
:1023D0002000000010080808C8380800203826210E
:1023E00020201800000000FE020202000000007F12
:1023F00040404000000C30C0000000000000000120
:102400000638C00000020202FE000000004040400A
:102410007F0000000000040202020400000000002F
:1024200000000000000000000000000080808080AC
:102430008080808000020204000000000000000094
:10244000000000000000808080800000001924222D
:1024500022223F2008F8008080000000003F112069
:1024600020110E000000008080800000000E11206E
:1024700020201100000000808088F800000E11204C
:1024800020103F200000808080800000001F22225A
:1024900022221300008080F0888888180020203FC6
:1024A000202000000000808080808000006B9494D9
:1024B0009493600008F8008080800000203F210095
:1024C00000203F2000809898000000000020203F5E
:1024D00020200000000000809898000000C080804C
:1024E000807F000008F8000080808000203F2402E8
:1024F0002D302000000808F8000000000020203FD8
:10250000202000008080808080808000203F20008C
:102510003F20003F8080008080800000203F21001D
:1025200000203F200000808080800000001F2020CD
:1025300020201F00808000808000000080FFA120FC
:1025400020110E000000008080808000000E11200D
:1025500020A0FF80808080008080800020203F219C
:10256000200001000000808080808000003324244F
:1025700024241900008080E0808000000000001FFB
:10258000202000008080000000808000001F2020AC
:1025900020103F20808080000080808000010E306D
:1025A0000806010080800080008080800F300C03CE
:1025B0000C300F0000808000808080000020312ED1
:1025C0000E312000808080000080808080818E70AD
:1025D0001806010000808080808080000021302C5F
:1025E0002221300000000000807C02020000000078
:1025F000003F404000000000FF000000000000001D
:10260000FF0000000002027C800000000040403F0C
:1026100000000000000601010202040400000000A6
:102620000000000001000822DFF8CC05006850F42B
:102630000050DFF8C4351860DFF8BC05006830F4DE
:102640008030DFF8B435186024E0DFF8AC050068AE
:1026500030F40040DFF8A035186009E00806F4D532
:10266000DFF89405006850F40040DFF88C351860FE
:10267000DFF88405006850F48030DFF87C3518609E
:1026800000BFDFF87405006830F48030DFF868358B
:10269000186049001000421EC0B20028DED1704709
:1026A00001000822DFF85005006830F40050DFF820
:1026B00048351860DFF84005006830F48030DFF8F6
:1026C0003835186024E0DFF83005006830F4004049
:1026D000DFF82435186009E00806F4D5DFF818059E
:1026E000006850F40040DFF810351860DFF8080586
:1026F000006850F48030DFF80035186000BFDFF864
:10270000F804006830F48030DFF8EC3418604900D9
:102710001000421EC0B20028DED1704710B5040080
:10272000B1F15000C0B2FFF7BBFF2000C0B20009FA
:1027300050F01000C0B2FFF7B3FF14F00F0454F0D4
:1027400001042000C0B2FFF7ABFF10BD70B504005C
:10275000002509E02000C0B2FFF764FF761C3000BE
:10276000C0B28028F6DB6D1C2800C0B208280CDA45
:10277000B5F15000C0B2FFF793FF0120FFF790FFC3
:102780001020FFF78DFF0026E9E770BD38B5002463
:1027900008E00020FFF746FF6D1C2800C0B280282B
:1027A000F7DB641C2000C0B208280CDAB4F150003A
:1027B000C0B2FFF775FF0120FFF772FF1020FFF78F
:1027C0006FFF0025E9E731BD06E040F23752110006
:1027D0004A1E0029FBD1401E0028F6D1704780B563
:1027E000002301220D21DFF8100400F011FA00236C
:1027F00001220E21DFF8000400F00AFA0023012272
:102800000F21DFF8F40300F003FA00230122102166
:10281000DFF8E40300F0FCF9DFF8DC03006850F4B3
:102820008030DFF8D4130860DFF8CC03006830F4A0
:102830008040DFF8C41308603220FFF7C5FFDFF8DF
:10284000B803006850F48040DFF8AC130860AE2095
:10285000FFF726FF0020FFF723FF1020FFF720FFE0
:102860004020FFF71DFF8120FFF71AFFCF20FFF761
:1028700017FFA120FFF714FFC820FFF711FFA620C4
:10288000FFF70EFFA820FFF70BFF3F20FFF708FF21
:10289000D320FFF705FF0020FFF702FFD520FFF749
:1028A000FFFE8020FFF7FCFED920FFF7F9FEF120A4
:1028B000FFF7F6FEDA20FFF7F3FE1220FFF7F0FE37
:1028C000DB20FFF7EDFE4020FFF7EAFE2020FFF7B8
:1028D000E7FE0220FFF7E4FE8D20FFF7E1FE142063
:1028E000FFF7DEFEA420FFF7DBFEA620FFF7D8FEF1
:1028F000AF20FFF7D5FE0020FFF728FF00210020C2
:10290000FFF70CFF01BD2DE9F84304000D00160090
:1029100000200020002714E0DFF8E0124A46D2B27F
:102920000620424301EB02004146C9B2405CFFF77A
:1029300079FE18F101084046C0B20628ECDBA41D60
:102940007F1C3800C0B2305C002813D03800C0B201
:10295000305CB0F120092000C0B27F2801DB0024E8
:102960006D1C2900C9B22000C0B2FFF7D7FE5FF08E
:102970000008E0E7BDE8F1832DE9F84304000D000D
:10298000160000200020002712E0DFF87402414604
:10299000C9B2090151FA89F10844007AFFF742FEF1
:1029A00019F101094846C0B20828EEDB08347F1C43
:1029B0003800C0B2305C00282CD03800C0B2305C87
:1029C000B0F120082000C0B2792801DB00246D1C82
:1029D0002900C9B22000C0B2FFF7A0FE5FF00009D5
:1029E0000BE0DFF81C024146C9B2090151FA89F136
:1029F000405CFFF717FE19F101094846C0B20828EC
:102A0000EFDB691CC9B22000C0B2FFF787FE5FF0A0
:102A10000009C7E7BDE8F1832DE9F84304000D0084
:102A200016000020002701200AE00020FFF7FAFD31
:102A300018F101084046C0B21028F6DB0E34BF1C66
:102A40003800C0B2305C002800F07F8000215FF0C9
:102A5000010800E0891CDFF8AC010A00D2B2805CFA
:102A6000802819DBDFF89C010A00D2B2805C3A00B2
:102A7000D2B2B25C9042EDD1DFF888010A00D2B246
:102A8000104440783A00D2B2324452789042E1D1B8
:102A9000C9B20E20414388462000C0B2772801DB2E
:102AA00000246D1C2900C9B22000C0B2FFF736FE19
:102AB000B8F1010F2DD02900C9B22000C0B2FFF734
:102AC0002DFE5FF0000909E0DFF83C0110F8080076
:102AD000FFF7A8FD18F1010819F101094846C0B235
:102AE0000E28F1DB691CC9B22000C0B2FFF716FE48
:102AF0005FF000094846C0B20E289FDADFF80801EF
:102B000010F80800FFF78EFD18F1010819F101090E
:102B1000F0E77F1C2900C9B22000C0B2FFF7FEFD1C
:102B20005FF0000804E00020FFF77CFD18F10108C9
:102B30004046C0B21028F6DB691CC9B22000C0B202
:102B4000FFF7ECFD5FF0000874E7BDE8F183F8B52E
:102B500004000D001600002716E03800C0B2305CFB
:102B60008DF800003800C0B2304440788DF8010084
:102B700000208DF802006A462900C9B22000C0B2C8
:102B8000FFF74AFF0E34BF1C3800C0B2305C00288B
:102B900016D03800C0B2305C8028DEDA3800C0B20F
:102BA000305C8DF8000000208DF801006A46290095
:102BB000C9B22000C0B2FFF7DFFE08347F1CE3E794
:102BC000F1BD70B5002400260AE01048005DFFF753
:102BD00029FD641C6D1C2800C0B27628F5DB761C2C
:102BE0003000C0B2082806DA3100C9B21020FFF761
:102BF00095FD0E25EFE770BD80F00F40C836000050
:102C0000342000002840000040310000002E000069
:102C100070B46F4C246854F478546D4D2C600500EA
:102C20006C4EAD1B08D0403D08D0403D08D0403D23
:102C300008D0403D08D009E0674C07E0674C05E04C
:102C4000674C03E0674C01E0674CFFE74FF4807589
:102C500044F8215052B2012A15D1426901248C4016
:102C600022434261012B06D10268012313FA01F1CC
:102C7000114301600EE00268012313FA01F132EA08
:102C80000101016006E04269012313FA01F132EA11
:102C90000101416170BC7047012A06D1026801231D
:102CA00013FA01F11143016006E00268012313FAEF
:102CB00001F132EA0101016070470268012313FA51
:102CC00001F1514001607047002048490968C14046
:102CD000C90707D545490968012212FA00F00843DF
:102CE00042490860012041490968C140C90707D528
:102CF0003E490968012212FA00F008433B49086086
:102D0000704700203A490968C140C90707D53849CA
:102D10000968012212FA00F00843354908600120D1
:102D200033490968C140C90707D5314909680122FB
:102D300012FA00F008432E490860704700202D4920
:102D40000968C140C90707D52A490968012212FA52
:102D500000F00843274908607047002026490968A9
:102D6000C140C90707D524490968012212FA00F0B9
:102D700008432149086001201F490968C140C9076B
:102D800007D51D490968012212FA00F008431A49C3
:102D900008607047002019490968C140C90707D574
:102DA00016490968012212FA00F008431349086025
:102DB000012012490968C140C90707D50F490968B0
:102DC000012212FA00F008430C4908607047000025
:102DD0003880044000F00F400090044000A0044000
:102DE00000B0044000C0044000D00440A090044063
:102DF000A0A00440A0B00440A0C00440A0D0044063
:102E000000000000000000000000000000000000C2
:102E100000000000000000000000000000000000B2
:102E2000000000000000000000003F3F3F3F3FC0A7
:102E3000C0C0C0C000000000000000000000000092
:102E40000000000000000000000000000000000082
:102E50000000000000000000000000000000000072
:102E60000000000000000000000080C0E0E0F0F082
:102E7000F0F00000000000F0F0F0F0F0F0F0F0F002
:102E8000F0F0F0F0F0F0F0F0F0F0F0F0F0F0F0F042
:102E9000F0F0F0F0F0F0F00707070707000000007F
:102EA000000000000000E0F0F0F000000000006012
:102EB000E0E0C0000000000000C0E0E0E060606012
:102EC000607070303000E0E0E0E02060E0E0E04082
:102ED000F0FEFFFFFFFFFFFFFFFF0000000000FF0D
:102EE000FFFFFFFFFFFFFFFF1F1F1F1F1F1F1F1FF2
:102EF0001F1F1F1F1F1F1F1F1F1F1FFFFFFFFFFE83
:102F0000FEFEFEFE0000000606060606C6FEFFFFE9
:102F10001F070606FEFEFE06060686C666060000BB
:102F200000FFFFFFFF3030F0F0F0F0303000FFFF27
:102F3000FFFF4078FFFFFF80FFFFFFFFFFFFFFFF66
:102F4000FFFF0000000000FFFFFFFFFFFFFFFFFF8C
:102F50000000000000000000000000000000000071
:102F6000000000FFFFFFFFFFFFFFFFFF000000006A
:102F700000C0F0FEFF3F0780C0C06070FFFFFF0E83
:102F8000070301000000000000FFFFFFFF0000FF3B
:102F9000FFFFFF000000FFFFFFFF0000FFFFFFFF3C
:102FA000FFFFFFFFFFFFFFFFFFFF0000000000FF2C
:102FB000FFFFFFFFFFFFFFFF000000000000000019
:102FC0000000000000000000000080FFFFFFFFFF86
:102FD000FFFFFFFF000000040F0F070300000301C5
:102FE00001000000070F0F0E0C0C0C0C0C0C000065
:102FF0000407070707060203030303030300070F81
:103000000F07030303030100FFFFFFFFFFFFFFFFA5
:10301000FFFF0000000000FFFFFFFFFFFFFFFFFFBB
:10302000FFFFFFFFFFFFFFFFFFFFFFFFFFFFFFFFB0
:10303000FFFFFFFFFFFFFFFFFFFFFFFF000000425A
:103040004242FEFEFFE743434100061E3E3C300085
:10305000FFFFFFFF000000004040FFFFFFFF4000B8
:10306000080808080808FFFFFFFF08080808080804
:103070007FFFFFFFFFFFFFFFFFFFC0C0C0C0C0C159
:10308000C1C1C1C1C1C1C1C1C1C1C1C1C1C1C1C130
:10309000C1C1C1C1C1010101010101FFFFFFFFFF6A
:1030A000FFFFFFFF000000FFFF00FFFFFF00FEFF2C
:1030B0000000030F1F1E1800FFFFFFFF80800000AD
:1030C0008080FFFFFFFF400000021A7AFAF2E383DC
:1030D00083C3F2FE7E3E0E0000070F1F3F3F7F7F3F
:1030E0007F7F7F7F7F7F7F7F7F7F7F7F7F7F7F7FF0
:1030F0007F7F7F7F7F7F7F7F7F7F7F7F7F0000005D
:103100000000007F7F7F3F3F1F0F07000000007F10
:103110007F007F7F7F003F7F0000030101010101ED
:103120007F7F7F7F0000000040607F7F7F3F000047
:1031300000406070787D3F1F1F3F7F7870604000C7
:1031400020202020FE000000FE80402010001010F3
:1031500008047F0000003F40404070000808E82855
:10316000282A2C282828E80808000020130A4242B0
:103170007E02020A1320000000F090909090FE90D2
:10318000909090F00000000F040404043F44444475
:1031900044477000808282828282C2A2928A8682A2
:1031A00080000000000040407F00000000000000A0
:1031B000404848F8444420C41800FE0000000804B9
:1031C000037F0204020202027F0101001010FE10C0
:1031D00000909090FE909010000042427F0140408D
:1031E000231408142340400004FC2424FC0400FCA5
:1031F000040404FC0000101F11097F084033020280
:103200000213600010608000FE000000FE0080706D
:103210000000404043407F4040407F4241404000EA
:1032200070109294909294909894121070000404EC
:10323000040444447E06050404040400FC04649C65
:10324000001848484A4C484818007F0808074022A0
:10325000120E02023E42620020202020A07E20E0CA
:10326000242820A020004020100C2320103F44429E
:103270004140700000FC444444C24200FC0444B499
:103280000C00101F1010080F08007F0010100F0016
:1032900028A6643C64A420FC848484FC0000010013
:1032A0007E2A2A2A2A2A2A2A7E000000109894922E
:1032B000909830003E4848447400007F0A0A4A7FD4
:1032C00000003F44444271001090FE901000FC0446
:1032D0000404FC00000002017F0041300F000000E8
:1032E0003F407000809E9292929EC09E92B2D29E6B
:1032F0008000047C4A4A49780078494A4A7C0400A4
:103300000000000000807E800000000000004040BF
:1033100020100C0300030C10204040004042CC0061
:10332000846C544CD444524E020040201F20425A18
:1033300052525F52525A42001010FE100098482A12
:103340000C082848980042427F01004042427E42D9
:1033500042424000809E9292929EC09E92B2D29E25
:103360008000047C4A4A49780078494A4A7C040033
:103370001010FE10504858EA4C685848400042422D
:103380007F01424A2E13122A2642020000F8000052
:10339000FE004020DE1010F01000000702017F0048
:1033A000402017081621400000302C20A0702E204D
:1033B00020202428200010084442412729112925D3
:1033C000434040008084980080929490F0909492C2
:1033D000800040201F204050484641424458400051
:1033E0001010FE1000B88888EA8C8888B800424225
:1033F0007F01004044271808142340002050CE4885
:1034000000C8B820A8FEA8F8200002023F522810E9
:103410002F204A7F4A4A48000000008080000000B8
:10342000000000000000000000191900000000006A
:103430000000000080B50123012211219E48FFF702
:10344000E7FB0123012200219C48FFF7E1FB012358
:1034500001220F219A48FFF7DBFB012301221A21E9
:103460009848FFF7D5FB0123012212219348FFF76B
:10347000CFFB0123012213219048FFF7C9FB01BDB7
:1034800080B540B200280BD0022841D024D30428B4
:1034900076D059D3062800F0AB80C0F08D8009E1CA
:1034A000080040B2002805D1002211218248FFF710
:1034B000F3FB10E0080040B2012805D101221121E0
:1034C0007D48FFF7E9FB06E049B2022903D111214B
:1034D0007948FFF7F2FBEDE0080040B2002805D183
:1034E000002200217548FFF7D7FB10E0080040B22A
:1034F000012805D1012200217048FFF7CDFB06E02D
:1035000049B2022903D100216C48FFF7D6FBD1E074
:10351000080040B2002805D100220F216848FFF7BB
:10352000BBFB10E0080040B2012805D101220F21A9
:103530006348FFF7B1FB06E049B2022903D10F212E
:103540005F48FFF7BAFBB5E0080040B2002805D19C
:1035500000221A215B48FFF79FFB10E0080040B2F1
:10356000012805D101221A215648FFF795FB06E0F4
:1035700049B2022903D11A215248FFF79EFB99E074
:10358000080040B2002805D1002212214B48FFF765
:1035900083FB10E0080040B2012805D1012212216E
:1035A0004648FFF779FB06E049B2022903D1122110
:1035B0004248FFF782FB7DE0080040B2002805D1B9
:1035C000002213213D48FFF767FB10E0080040B2DE
:1035D000012805D1012213213848FFF75DFB06E0E1
:1035E00049B2022903D113213448FFF766FB61E099
:1035F000080040B200281ED1002211212E48FFF7FA
:103600004BFB002200212D48FFF746FB00220F2133
:103610002B48FFF741FB00221A212A48FFF73CFB09
:10362000002212212548FFF737FB002213212348EF
:10363000FFF732FB3DE0080040B201281ED1012215
:1036400011211D48FFF728FB012200211B48FFF72D
:1036500023FB01220F211A48FFF71EFB01221A212A
:103660001848FFF719FB012212211448FFF714FB39
:10367000012213211148FFF70FFB1AE049B202297A
:1036800017D111210C48FFF718FB00210B48FFF759
:1036900014FB0F210A48FFF710FB1A210948FFF716
:1036A0000CFB12210548FFF708FB13210348FFF725
:1036B00004FBFFE701BD000000F00F4080F00F4069
:1036C000C0F00F4000F10F400000000000000000BB
:1036D000002F000000000700070000147F147F1473
:1036E00000242A7F2A1200626408132300364955F9
:1036F000225000000503000000001C2241000000D1
:1037000041221C000014083E08140008083E080866
:10371000000000A0600000080808080800006060C1
:103720000000002010080402003E5149453E000000
:10373000427F4000004261514946002141454B31E2
:10374000001814127F10002745454539003C4A49AE
:103750004930000171090503003649494936000620
:103760004949291E00003636000000005636000088
:103770000008142241000014141414140000412203
:10378000140800020151090600324959513E007CDB
:103790001211127C007F49494936003E41414122C5
:1037A000007F4141221C007F49494941007F0909AE
:1037B0000901003E4149497A007F0808087F00005E
:1037C000417F4100002040413F01007F0814224119
:1037D000007F40404040007F020C027F007F0408D1
:1037E000107F003E4141413E007F09090906003E2D
:1037F0004151215E007F0919294600464949493156
:103800000001017F0101003F4040403F001F204078
:10381000201F003F4038403F006314081463000736
:103820000870080700615149454300007F4141008D
:1038300000552A552A55000041417F00000402012D
:10384000020400404040404000000102040000200B
:1038500054545478007F4844443800384444442049
:1038600000384444487F00385454541800087E09F6
:1038700001020018A4A4A47C007F080404780000BE
:10388000447D4000004080847D00007F102844007B
:103890000000417F4000007C04180478007C08048C
:1038A000047800384444443800FC242424180018C8
:1038B000242418FC007C08040408004854545420B4
:1038C00000043F444020003C4040207C001C20403D
:1038D000201C003C4030403C004428102844001C80
:1038E000A0A0A07C004464544C4414141414141478
:1038F00010B44C49096851F478514A4C21600100D8
:1039000049B200294BD040B2012818D047D3032830
:103910001BD017D305281ED01AD3072821D01DD3BA
:10392000092824D020D30B2827D023D30D2827D033
:1039300029D30F282DD029D310282DD02FE00422F1
:1039400000232CE00422022329E00422042326E0A1
:103950000422082323E004220A2320E004220C236B
:103960001DE004220E231AE00422102317E0042293
:10397000122314E00422142311E0042218230EE081
:1039800004221C230BE004221D2308E004221E2332
:1039900005E004221F2302E003221623FFE7802014
:1039A0002149087012F0070020490870204800687B
:1039B0001F49096851F47F011D4C21601D491E4CAF
:1039C00021601B49086013F01F0050F040001B49A4
:1039D00008701B4800788006FBD51948007840061F
:1039E000FBD500201049087015480078C0B2C0F31C
:1039F00081000328F8D15BB2103332204343022008
:103A000093FBF0F052B2521C90FBF2F00D490860AB
:103A10000C4800680521B0FBF1F00B49086010BCB0
:103A2000704700BF38800440004006400440064014
:103A300000F0014000002704448004400540064097
:103A4000064006402C04FF1F3004FF1F44490200BB
:103A500052B251F8221009798906F7D5404940B28F
:103A600051F8200090F9070040B270473C4A03002B
:103A70005BB252F8232012791206F7D5384A40B2C9
:103A800052F82000C171704770B504000D00160097
:103A900006E095F90010200040B2FFF7E7FF6D1C2B
:103AA0003000461E0028F4D170BD00B585B000205E
:103AB000FFF7CCFF40B202002A49684600F056F8F2
:103AC000142269460020FFF7DFFF05B000BD00B5F6
:103AD00085B00120FFF7BAFF40B2020022496846D4
:103AE00000F044F8142269460120FFF7CDFF05B02D
:103AF00000BD00B599B00220FFF7A8FF40B2020058
:103B00001949684600F032F8642269460220FFF73E
:103B1000BBFF19B000BD00B585B00320FFF796FFCD
:103B200040B202001049684600F020F814226946AD
:103B30000320FFF7A9FF05B000BD00B585B0042044
:103B4000FFF784FF40B202000749684600F00EF814
:103B5000142269460420FFF797FF05B000BD00005E
:103B60001004FF1F40420000544200000CB430B566
:103B700083B0044606A802900A46002501940095E9
:103B800002AB01A9084878441E30FCF77FFC01997C
:103B90000D7000284EBF04460198041B204603B058
:103BA00030BC5DF80CFB00BF07D7FFFF80B52E4887
:103BB0000178C9B22D4800F085F801BD80B52C48C8
:103BC000006850F080702A4908602A4800F07AF8AE
:103BD00001BD2DE9F84F046845688668C768D0F8CC
:103BE0001080D0F81490D0F818A0D0F81CB022485B
:103BF00000F068F82100214800F064F8290020480E
:103C000000F060F831001F4800F05CF839001E48F1
:103C100000F058F841461D4800F054F849461C4849
:103C200000F050F851461B4800F04CF859461A482D
:103C300000F048F819480168194800F043F819489D
:103C40000168194800F03EF818480168184800F06B
:103C500039F818480168184800F034F81748016826
:103C6000174800F02FF8FEE704ED00E06040000088
:103C700010900440B840000010420000884200004C
:103C800094420000A0420000AC420000B842000094
:103C9000C4420000D0420000DC42000038ED00E0E9
:103CA000E842000028ED00E0F44200002CED00E0C6
:103CB0000043000030ED00E00C4300003CED00E06C
:103CC000184300000EB4C0B5024603A800210190BD
:103CD000009101AB0121044878440C30FCF7D6FB7D
:103CE00006BC5DF810FB00BF41050000012210F08A
:103CF0001F018A402B4940B2400941F820207047FB
:103D000080B5294A126852F40002274B1A60274AEC
:103D1000126892089200254B1A6049F640425143BE
:103D2000234A03005BB21B01D1502149020052B269
:103D300012011144C96851F001011D4A03005BB230
:103D40001B011A44D1601A49020052B212011144F7
:103D5000896851F00301164A03005BB21B011A4443
:103D60009160303040B2FFF7C1FF01BD11480068DB
:103D700050F001000F49086070470F48006850F08C
:103D800001000D49086070470B48006850F00100C1
:103D90000949086070470948006850F00100074968
:103DA0000860704700E100E03C8004400070034080
:103DB000007103400C7103401C7103403C710340CF
:103DC00080B500F05BF800F009F82148006850F475
:103DD00070001F49086000F06DF8FEE780B51D48CF
:103DE0001D4988420BD0002006E01B4951F82010E5
:103DF000184A42F82010401CB0F5826FF5D31548E0
:103E000000F098F8154A164B1649C91A03E01878BD
:103E100010705B1C521C0800411E0028F7D1124A8A
:103E20001249891A02E000201070521C0800411E3D
:103E30000028F8D10E4A0F4B0F49C91A03E0187831
:103E400010705B1C521C0800411E0028F7D101BDF8
:103E500088ED00E00000FF1F000000001004FF1FBD
:103E6000F4410000104200002C04FF1F3C04FF1F1F
:103E70003C04FF1FD0010000D001000080B500F01D
:103E800009F80A4801884FF6FE7001400748018092
:103E900001BD000072B64CF22050054908804DF675
:103EA00028100349088062B67047000000200540D2
:103EB0000E20054080B572B60B20FFF719FD4FF4B8
:103EC000FA710020FFF71CFFFFF7B4FA002106206B
:103ED000FFF7D6FAFEF783FCFEF773FE4FF4FA60A5
:103EE00000F02EF8FEF752FC0F4A00210820FEF7E2
:103EF0002EFE0E4A03212D20FEF705FD0C4A04215B
:103F00000620FEF739FD00210620FFF7B9FA4FF42D
:103F1000FA7000F015F801210620FFF7B1FA4FF40E
:103F2000FA7000F00DF8EEE7684200003043000040
:103F300078420000014908607047000008ED00E089
:103F400080B580B200F001F801BD010089B20029FE
:103F50001BD01249096851F00101104A116000217B
:103F60000F4A116080B21049086005200D490860B1
:103F700001200B4908600A4800680006FBD5084884
:103F8000006840084000064908607047044800681F
:103F900050F08000024908607047000038800440FB
:103FA00000000440040004400800044019E050F8F8
:103FB000042BD30744BFA9F101039A18091F00235A
:103FC000042942F8043BF9D25FEA817C134604D508
:103FD0004FF0000CA2F800C09B1CC90744BF002191
:103FE000197050F8041B0029E1D170470B48006894
:103FF00000200A4908600020012070470848006836
:10400000002007490860002001207047054800682B
:1040100000200449086000200120704750800340C0
:104020005090034050A00340B1B1BEA9B5E7D7D32B
:10403000BFC6BCBCD6B0D2B5D1A7D4BAC1FAC7F1FD
:10404000D6C7C4DCBBFAC6F7C8CBD2A3BFD8C6F765
:10405000BDD3CAD5B7A2CBCDB0B4BCFCA3BA0000C7
:104060000A2A2A2A2A64656661756C745F6973720C
:1040700020656E7465726564206F6E20766563746A
:104080006F722025642A2A2A2A2A0D0A0A000000B3
:1040900010B5074979441831064C7C44163404E0C5
:1040A0000A68081D114488470146A142F8D110BD95
:1040B00094000000A00000000A2A2A2A2A41626F08
:1040C000727420627574746F6E20696E746572729A
:1040D0007570742A2A2A2A0A0A0000000748006814
:1040E00050F01000054908600348006830F01000E7
:1040F00001490860704700000C80004024800040A7
:104100004EF68851CEF20001086840F47000086055
:10411000BFF34F8FBFF36F8F4FF00070E1EE100AC7
:10412000704718B583B00300140000930191029406
:1041300069460520ABBE01221900201AAFF30080AA
:1041400004B010BD69FEFFFF100000002C04FF1F2B
:104150000000000080B58DF80000012269460120B2
:1041600000F008F8012802D19DF8000002BD4FF0D0
:10417000FF3002BD80B5002802D400F003F802BD74
:10418000002002BD80B5002901D1002002BD012818
:1041900001D0022802D100F004F802BDFFF7C1FFF0
:1041A00002BD30B583B00C0015000120FDF7FCFE08
:1041B00000900194029569460520ABBE281A03B011
:1041C00030BD00000120C046002801D0FFF760FF8D
:1041D000AFF300800020AFF30080FFF76BFE00F02C
:1041E00000F800F001B8000007463846FDF7BCFEB5
:1041F000FBE7000000A0064000B0064000C00640FB
:1042000000D0064000A00E40FFFFFFFFFFFFFFFFB2
:104210005B48617264206661756C742068616E64CD
:104220006C65725D0A00000038B504460D462846EC
:10423000FFF790FFA84218BF0024204632BD0000BF
:10424000C4E3B7A2CBCDB5C4CAFDBEDDCEAAA3BA26
:1042500025780A00C4E3B7A2CBCDB5C4CAFDBEDD44
:10426000CEAAA3BA25630A00C1FAC7F1D6C7C4DC37
:10427000BFC6BCBC000000004C4F4E472051495502
:1042800020492E532E542E005230203D2025780AEE
:10429000000000005231203D2025780A0000000077
:1042A0005232203D2025780A000000005233203D84
:1042B0002025780A00000000523132203D20257868
:1042C0000A0000004C52203D2025780A0000000022
:1042D0005043203D2025780A000000005053522012
:1042E0003D2025780A00000042464152203D20250D
:1042F000780A000043465352203D2025780A0000EA
:1043000048465352203D2025780A00004446535227
:10431000203D2025780A000041465352203D2025AB
:10432000780A0000AFF30080FFF7EAFEFFF74AFFCC
:084330004265694A696E6700ED
:04000005000043258F
:00000001FF
